:0400000092EF01F08A
:0C0008009EAA03D0152AAECF16F01100FE
:100014008A8A000000008A9A210E0D6E0D2EFED7EA
:020024001200C8
:10002600010E2C14006E00B002D08C9801D08C8882
:100036002CC000F00032009E010E001600B002D067
:100046008C9A01D08C8A2CC000F00032009E0032BF
:10005600009E010E001600B002D08C9C01D08C8C44
:100066002CC000F00032009E0032009E0032009E3E
:10007600010E001600B002D08C9E01D08C8E1200AC
:100086002B6A80A805D0100E2B6E100E006E17D0AE
:1000960080AA05D0140E2B6E140E006E10D080AC04
:1000A60005D0180E2B6E180E006E09D080AE05D046
:1000B6001C0E2B6E1C0E006E02D02BC000F0120020
:1000C600030E2C6EADDFA3DF210E0D6E0D2EFED7B7
:0200D600120016
:1000D8008A942BC02CF02C322C9E2C322C9E2C3245
:1000E8002C9E2C322C9E9BDF91DF0F0E2B142C6E36
:0600F80096DF8CDF120010
:1000FE002650010A06E12704006E0050800F296E7B
:10010E0008D02650020A05E12704006E0050C00FE9
:10011E00296E29C02BF0D9DF8A8428C02CF02C320E
:10012E002C9E2C322C9E2C322C9E2C322C9E74DF2C
:0E013E006ADF0F0E28142C6E6FDF65DF1200D3
:10014C00948C948E0F0EAF6EAC6AAB8EAB889D8A7E
:06015C00F28EF28C12008D
:100162000900F5CFE6FF0006FBE10106F9E1120006
:10017200410E0C6EEE0E0D6E0D2EFED70C2EFCD720
:100182000000A0DF9FDF9EDF020E2C6E4BDF41DFFF
:10019200280E2B6EA0DF0F0E2B6E9DDF010E2B6E35
:0A01A2009ADF060E2B6E97DF1200A5
:1001AC00296A2A6A070E296E000E2A6E800E2A18FA
:1001BC00006E800E005C02E1000E295C31E32950D8
:1001CC000708006E2AC001F0000E015600502724CB
:1001DC00036E01502820046E29C002F0010E006E3F
:1001EC00000E016E025005E0003600900136FF0F44
:1001FC00FAD726500016000E01160050011003E02D
:10020C00310E056E02D0300E056E03C0E1FF04C046
:10021C00E2FF05C0E6FF010E295E000E2A5AC6D782
:10022C00080E2724E16E000E2820E26EE66A12000A
:10023C00266A276A898021DF00C027F00050000A57
:10024C0013E0030E0B6E8A0E0C6E550E0D6E0D2EFA
:10025C00FED70C2EFCD70B2EFAD70000000027C0BF
:10026C0026F027C000F057D08990898206DF00C0A5
:10027C0027F00050000A14E0030E0B6E8A0E0C6E71
:10028C00550E0D6E0D2EFED70C2EFCD70B2EFAD75D
:10029C00000000002750010F006E00C026F03BD07C
:1002AC0089928984EADE00C027F00050000A14E02D
:1002BC00030E0B6E8A0E0C6E550E0D6E0D2EFED7A8
:1002CC000C2EFCD70B2EFAD7000000002750020F83
:1002DC00006E00C026F01FD089948986CEDE00C047
:1002EC0027F00050000A14E0030E0B6E8A0E0C6E01
:1002FC00550E0D6E0D2EFED70C2EFCD70B2EFAD7ED
:10030C00000000002750030F006E00C026F003D041
:08031C00899626C000F01200D2
:10032400156A166A206A216A010E226E236A246AFB
:10033400256A0F0EC16E9394939A9598959A959CFD
:10034400959E92909292929492969288928A928C8E
:10035400928E9590F9DE0BDF210E0C6E760E0D6EEB
:100364000D2EFED70C2EFCD70000216A226A166AD5
:10037400246A256A156A010E226E010E266E010E8C
:10038400276E530E286EB9DE222A010E266E22C075
:1003940027F0450E286EB1DE222A010E266E22C0F9
:1003A40027F0540E286EA9DE222A010E266E22C0E2
:1003B40027F03A0E286EA1DE222A222A010E226E8E
:1003C400210E0C6E760E0D6E0D2EFED70C2EFCD764
:1003D40000002550120AD8B408D1010E266E060E6C
:1003E400276E23C028F089DE232A26DF00C025F0EB
:1003F4000050100A02E1243624902550110A03E12A
:100404002436249024802550120A4CE1010E266ED5
:1004140022C027F0530E286E70DE222A010E266EAB
:1004240022C027F0540E286E68DE222A010E266EA2
:1004340022C027F0410E286E60DE222A010E266EAD
:1004440022C027F0520E286E58DE222A010E266E94
:1004540022C027F0540E286E50DE222A010E266E8A
:1004640022C027F0490E286E48DE222A010E266E8D
:1004740022C027F04E0E286E40DE222A010E266E80
:1004840022C027F0470E286E38DE1A0E0B6E5E0E61
:100494000C6E6E0E0D6E0D2EFED70C2EFCD70B2E91
:1004A400FAD700002550130AD8A481D0010E226E79
:1004B400010E266E010E276E420E286E1EDE222AC3
:1004C400010E266E22C027F0520E286E16DE222A56
:1004D400010E266E22C027F0450E286E0EDE222A5B
:1004E400010E266E22C027F0410E286E06DE222A57
:1004F400010E266E22C027F04B0E286EFEDD222A46
:10050400010E266E22C027F0490E286EF6DD222A3F
:10051400010E266E22C027F04E0E286EEEDD222A32
:10052400010E266E22C027F0470E286EE6DD222A31
:10053400010E266E22C027F0200E286EDEDD222A50
:10054400010E266E22C027F0200E286ED6DD222A48
:10055400010E266E22C027F0200E286ECEDD222A40
:10056400010E266E22C027F0200E286EC6DD222A38
:10057400010E266E22C027F0200E286EBEDD222A30
:10058400010E266E22C027F0200E286EB6DD222A28
:100594001A0E0B6E5E0E0C6E6E0E0D6E0D2EFED7C9
:1005A4000C2EFCD70B2EFAD70000246A1ED024C0D0
:1005B40026F0170E276E000E286EF6DD216A080E4F
:1005C400215C12E2020E266E2150010F276E170ED7
:1005D400E96E000EEA6E2150E926D8B0EA2AEECF81
:1005E40028F08BDD212AEBD7F4D624C020F0010EAD
:1005F4002B6E70DD020E0B6E450E0C6EA90E0D6E89
:100604000D2EFED70C2EFCD70B2EFAD700000000BF
:10061400010E226E010E266E010E276E530E286EF9
:100624006CDD222A010E266E22C027F0450E286EAC
:1006340064DD222A010E266E22C027F0430E286EA6
:100644005CDD222A010E266E22C027F04F0E286E92
:1006540054DD222A010E266E22C027F04E0E286E8B
:100664004CDD222A010E266E22C027F0440E286E8D
:1006740044DD222A010E266E22C027F03A0E286E8F
:100684003CDD020E266E0A0E276E23C028F035DDEF
:10069400232AD2DD00C025F00050130AD8A482D04A
:1006A400FF0E166E010E226E010E266E010E276ECF
:1006B400420E286E22DD222A010E266E22C027F069
:1006C400520E286E1ADD222A010E266E22C027F051
:1006D400450E286E12DD222A010E266E22C027F056
:1006E400410E286E0ADD222A010E266E22C027F052
:1006F4004B0E286E02DD222A010E266E22C027F040
:10070400490E286EFADC222A010E266E22C027F03A
:100714004E0E286EF2DC222A010E266E22C027F02D
:10072400470E286EEADC222A010E266E22C027F02C
:10073400200E286EE2DC222A010E266E22C027F04B
:10074400200E286EDADC222A010E266E22C027F043
:10075400200E286ED2DC222A010E266E22C027F03B
:10076400200E286ECADC222A010E266E22C027F033
:10077400200E286EC2DC222A010E266E22C027F02B
:10078400200E286EBADC222A1A0E0B6E5E0E0C6E38
:100794006E0E0D6E0D2EFED70C2EFCD70B2EFAD737
:1007A40000007AD015500008D8B075D0FF0E16148A
:1007B400266E170E276E000E286EF6DC216A080ED0
:1007C400215C12E2020E266E2150010F276E170ED5
:1007D400E96E000EEA6E2150E926D8B0EA2AEECF7F
:1007E40028F08BDC212AEBD7010E226E010E266E37
:1007F400010E276E530E286E80DC222A010E266E0F
:1008040022C027F0540E286E78DC222A010E266EB0
:1008140022C027F0410E286E70DC222A010E266EBB
:1008240022C027F0520E286E68DC222A010E266EA2
:1008340022C027F0540E286E60DC222A010E266E98
:1008440022C027F0490E286E58DC222A010E266E9B
:1008540022C027F04E0E286E50DC222A010E266E8E
:1008640022C027F0470E286E48DC222A010E266E8D
:1008740022C027F0200E286E40DC1A0E0B6E5E0E8E
:100884000C6E6E0E0D6E0D2EFED70C2EFCD70B2E9D
:10089400FAD7000001D0F5D6010E2B6E1BDC020E38
:1008A4000B6E450E0C6EA90E0D6E0D2EFED70C2E82
:1008B400FCD70B2EFAD700000000010E226E010EA9
:1008C400266E010E276E420E286E17DC222A010EB8
:1008D400266E22C027F0490E286E0FDC222A010E54
:1008E400266E22C027F04E0E286E07DC222A222A0A
:1008F400010E266E22C027F0430E286E7FEC00F016
:10090400222A010E266E22C027F04F0E286E7FEC9D
:1009140000F0222A010E266E22C027F0550E286E02
:100924007FEC00F0222A010E266E22C027F04E0E24
:10093400286E7FEC00F0222A010E266E22C027F0DA
:10094400540E286E7FEC00F0222A010E266E22C07F
:1009540027F0450E286E7FEC00F0222A010E266E49
:1009640022C027F0520E286E7FEC00F020C026F043
:10097400170E276E000E286E17DC216A080E215C04
:1009840013E2020E266E020E2124276E170EE96E64
:10099400000EEA6E2150E926D8B0EA2AEECF28F0FC
:1009A4007FEC00F0212AEAD70D0E0B6EAF0E0C6E11
:1009B400B60E0D6E0D2EFED70C2EFCD70B2EFAD7CD
:1009C4000000165020182AE1010E226E020E266E37
:1009D400010E276E580E286E7FEC00F0222A020EBC
:1009E400266E22C027F03D0E286E7FEC00F0222AEE
:1009F400020E266E22C027F0590E286E7FEC00F0FE
:100A0400222A0D0E0B6EAF0E0C6EB60E0D6E0D2E51
:100A1400FED70C2EFCD70B2EFAD700002050165C04
:100A24002AE2010E226E020E266E010E276E580E69
:100A3400286E7FEC00F0222A020E266E22C027F0D8
:100A44003C0E286E7FEC00F0222A020E266E22C095
:100A540027F0590E286E7FEC00F0222A0D0E0B6E43
:100A6400AF0E0C6EB60E0D6E0D2EFED70C2EFCD7EF
:100A74000B2EFAD700001650205CD8B0C5D01EEC5F
:100A840001F000C025F00050130AD8A48FD0010E45
:100A9400226E010E266E010E276E420E286E7FEC2A
:100AA40000F0222A010E266E22C027F0520E286E74
:100AB4007FEC00F0222A010E266E22C027F0450E9C
:100AC400286E7FEC00F0222A010E266E22C027F049
:100AD400410E286E7FEC00F0222A010E266E22C001
:100AE40027F04B0E286E7FEC00F0222A010E266EB2
:100AF40022C027F0490E286E7FEC00F0222A010E56
:100B0400266E22C027F04E0E286E7FEC00F0222ABB
:100B1400010E266E22C027F0470E286E7FEC00F0EF
:100B2400222A010E266E22C027F0200E286E7FECAA
:100B340000F0222A010E266E22C027F0200E286E15
:100B44007FEC00F0222A010E266E22C027F0200E30
:100B5400286E7FEC00F0222A010E266E22C027F0B8
:100B6400200E286E7FEC00F0222A010E266E22C091
:100B740027F0200E286E7FEC00F0222A010E266E4C
:100B840022C027F0200E286E7FEC00F0222A400EAF
:100B94000B6E6A0E0C6E970E0D6E0D2EFED70C2E7C
:100BA400FCD70B2EFAD7000000002ED0202A20C03C
:100BB40026F0170E276E000E286ED6EC00F0216A80
:100BC400080E215C13E2020E266E020E2124276E0B
:100BD400170EE96E000EEA6E2150E926D8B0EA2A13
:100BE400EECF28F07FEC00F0212AEAD70D0E0B6E31
:100BF400AF0E0C6EB60E0D6E0D2EFED70C2EFCD75E
:100C04000B2EFAD7000037D7010E2B6E6CEC00F0D8
:100C1400020E0B6E450E0C6EA90E0D6E0D2EFED738
:100C24000C2EFCD70B2EFAD700000000010E226E0A
:100C3400010E266E010E276E520E286E7FEC00F018
:100C4400222A010E266E22C027F0450E286E7FEC64
:100C540000F0222A010E266E22C027F0530E286EC1
:100C64007FEC00F0222A010E266E22C027F0540EDB
:100C7400286E7FEC00F0222A010E266E22C027F097
:100C8400410E286E7FEC00F0222A010E266E22C04F
:100C940027F0520E286E7FEC00F0222A010E266EF9
:100CA40022C027F0540E286E7FEC00F0222A010E99
:100CB400266E22C027F0490E286E7FEC00F0222A0F
:100CC400010E266E22C027F04E0E286E7FEC00F037
:100CD400222A010E266E22C027F0470E286E7FECD2
:100CE40000F0222A010E2B6E6CEC00F0020E0B6E4B
:100CF400450E0C6EA90E0D6E0D2EFED70C2EFCD7D4
:0E0D04000B2EFAD700000000B7EF01F0FFD76A
:020000040030CA
:0D000100021F1EFF8381FF0FC00FE00F40A4
:00000001FF
