:04000000BBEF01F061
:0E00080083709EAA03D0AECF16F0152A110009
:100016008A8A000000008A9A210E0D6E0D2EFED7E8
:020026001200C6
:10002800010E3014006E00B002D08C9801D08C887C
:1000380030C000F00032009E010E001600B002D061
:100048008C9A01D08C8A30C000F00032009E0032B9
:10005800009E010E001600B002D08C9C01D08C8C42
:1000680030C000F00032009E0032009E0032009E38
:10007800010E001600B002D08C9E01D08C8E1200AA
:100088008A942FC030F03032309E3032309E303279
:10009800309E3032309EC4DFBADF0F0E2F14306E20
:0600A800BFDFB5DF12000E
:1000AE00030E306EBADFB0DF210E0D6E0D2EFED7B1
:0200BE0012002E
:1000C0002F6A80A805D0100E2F6E100E006E17D06C
:1000D00080AA05D0140E2F6E140E006E10D080ACC6
:1000E00005D0180E2F6E180E006E09D080AE05D008
:1000F0001C0E2F6E1C0E006E02D02FC000F01200DE
:100100002A6A2B6A8980DCDF00C02BF00050000ACD
:1001100013E0030E0B6E8A0E0C6E550E0D6E0D2E37
:10012000FED70C2EFCD70B2EFAD7000000002BC0F8
:100130002AF02BC000F057D089908982C1DF00C01F
:100140002BF00050000A14E0030E0B6E8A0E0C6EAA
:10015000550E0D6E0D2EFED70C2EFCD70B2EFAD79A
:10016000000000002B50010F006E00C02AF03BD0B1
:1001700089928984A5DF00C02BF00050000A14E0AA
:10018000030E0B6E8A0E0C6E550E0D6E0D2EFED7E5
:100190000C2EFCD70B2EFAD7000000002B50020FBC
:1001A000006E00C02AF01FD08994898689DF00C0C4
:1001B0002BF00050000A14E0030E0B6E8A0E0C6E3A
:1001C000550E0D6E0D2EFED70C2EFCD70B2EFAD72A
:1001D000000000002B50030F006E00C02AF003D077
:0801E00089962AC000F012000C
:1001E8000B6A0A6A096A00500402F4CF09F0F3CFD7
:1001F80008F001500502F4CF0BF0F3CF0AF00050DD
:100208000502F3500926F4500A22E86A0B2201502D
:100218000402F3500926F4500A22E86A0B2208C0A7
:1002280000F009C001F00AC002F00BC003F0120090
:10023800948C948E400EAF6EAC6AAB8EAB889D8A60
:06024800F28EF28C1200A0
:10024E000900F5CFE6FF0006FBE10106F9E1120019
:10025E00410E0C6EEE0E0D6E0D2EFED70C2EFCD733
:10026E0000001EDF1DDF1CDF020E306ED6DECCDE80
:10027E00280E2F6E02DF0F0E2F6EFFDE010E2F6E79
:0A028E00FCDE060E2F6EF9DE1200F2
:100298002D6A2E6A070E2D6E000E2E6E800E2E18F9
:1002A800006E800E005C02E1000E2D5C31E32D50E3
:1002B8000708006E2EC001F0000E015600502B24D6
:1002C800036E01502C20046E2DC002F0010E006E4A
:1002D800000E016E025005E0003600900136FF0F57
:1002E800FAD72A500016000E01160050011003E03C
:1002F800310E056E02D0300E056E03C0E1FF04C05A
:10030800E2FF05C0E6FF010E2D5E000E2E5AC6D78D
:10031800080E2B24E16E000E2C20E26EE66A120015
:100328002A50010A06E12B04006E0050800F2D6E42
:1003380008D02A50020A05E12B04006E0050C00FB5
:100348002D6E2DC02FF09CDE8A842CC030F0303208
:10035800309E3032309E3032309E3032309E60DEF9
:0E03680056DE0F0E2C14306E5BDE51DE1200DE
:10037600156A166A216A226A010E236E246A256AA4
:10038600266A276A286A296A0F0EC16E9394939A81
:100396009598959A959C959E929092929294929603
:1003A6009288928A928C928E956A43DF55DF210E4F
:1003B6000C6E760E0D6E0D2EFED70C2EFCD70000A1
:1003C600226A236A276A286AFF0E296E256A266A28
:1003D600156A010E236E010E2A6E010E2B6E530E48
:1003E6002C6E9FDF232A010E2A6E23C02BF0450EAA
:1003F6002C6E97DF232A010E2A6E23C02BF0540E93
:100406002C6E8FDF232A010E2A6E23C02BF03A0EA4
:100416002C6E87DF232A232A010E236E2650120A0A
:10042600D8B408D1010E2A6E060E2B6E24C02CF00D
:1004360078DF242A62DE00C026F00050100A02E1AE
:10044600253625902650110A03E12536259025806C
:100456002650120A4CE1010E2A6E23C02BF0530ED1
:100466002C6E5FDF232A010E2A6E23C02BF0540E5A
:100476002C6E57DF232A010E2A6E23C02BF0410E65
:100486002C6E4FDF232A010E2A6E23C02BF0520E4C
:100496002C6E47DF232A010E2A6E23C02BF0540E42
:1004A6002C6E3FDF232A010E2A6E23C02BF0490E45
:1004B6002C6E37DF232A010E2A6E23C02BF04E0E38
:1004C6002C6E2FDF232A010E2A6E23C02BF0470E37
:1004D6002C6E27DF1A0E0B6E5E0E0C6E6E0E0D6EF8
:1004E6000D2EFED70C2EFCD70B2EFAD70000265069
:1004F600130AD8A481D0010E236E010E2A6E010EB6
:100506002B6E420E2C6E0DDF232A010E2A6E23C09F
:100516002BF0520E2C6E05DF232A010E2A6E23C005
:100526002BF0450E2C6EFDDE232A010E2A6E23C00B
:100536002BF0410E2C6EF5DE232A010E2A6E23C007
:100546002BF04B0E2C6EEDDE232A010E2A6E23C0F5
:100556002BF0490E2C6EE5DE232A010E2A6E23C0EF
:100566002BF04E0E2C6EDDDE232A010E2A6E23C0E2
:100576002BF0470E2C6ED5DE232A010E2A6E23C0E1
:100586002BF0200E2C6ECDDE232A010E2A6E23C000
:100596002BF0200E2C6EC5DE232A010E2A6E23C0F8
:1005A6002BF0200E2C6EBDDE232A010E2A6E23C0F0
:1005B6002BF0200E2C6EB5DE232A010E2A6E23C0E8
:1005C6002BF0200E2C6EADDE232A010E2A6E23C0E0
:1005D6002BF0200E2C6EA5DE232A1A0E0B6E5E0E55
:1005E6000C6E6E0E0D6E0D2EFED70C2EFCD70B2E3E
:1005F600FAD70000256A1ED025C02AF0170E2B6EEA
:10060600000E2C6E46DE226A080E225C12E2020EF4
:100616002A6E2250010F2B6E170EE96E000EEA6E3F
:100626002250E926D8B0EA2AEECF2CF07ADE222A2A
:10063600EBD7F4D625C021F0010E2F6E22DD020E77
:100646000B6E450E0C6EA90E0D6E0D2EFED70C2EE2
:10065600FCD70B2EFAD700000000010E236E010E08
:100666002A6E010E2B6E530E2C6E5BDE232A010EB4
:100676002A6E23C02BF0450E2C6E53DE232A010E64
:100686002A6E23C02BF0430E2C6E4BDE232A010E5E
:100696002A6E23C02BF04F0E2C6E43DE232A010E4A
:1006A6002A6E23C02BF04E0E2C6E3BDE232A010E43
:1006B6002A6E23C02BF0440E2C6E33DE232A010E45
:1006C6002A6E23C02BF03A0E2C6E2BDE276A286A80
:1006D600020E2A6E0A0E2B6E24C02CF022DE242A6D
:1006E6000CDD00C026F00050130AD8A480D0010EFD
:1006F600236E010E2A6E010E2B6E420E2C6E11DE3B
:10070600232A010E2A6E23C02BF0520E2C6E09DE10
:10071600232A010E2A6E23C02BF0450E2C6E01DE15
:10072600232A010E2A6E23C02BF0410E2C6EF9DD12
:10073600232A010E2A6E23C02BF04B0E2C6EF1DD00
:10074600232A010E2A6E23C02BF0490E2C6EE9DDFA
:10075600232A010E2A6E23C02BF04E0E2C6EE1DDED
:10076600232A010E2A6E23C02BF0470E2C6ED9DDEC
:10077600232A010E2A6E23C02BF0200E2C6ED1DD0B
:10078600232A010E2A6E23C02BF0200E2C6EC9DD03
:10079600232A010E2A6E23C02BF0200E2C6EC1DDFB
:1007A600232A010E2A6E23C02BF0200E2C6EB9DDF3
:1007B600232A010E2A6E23C02BF0200E2C6EB1DDEB
:1007C600232A010E2A6E23C02BF0200E2C6EA9DDE3
:1007D600232A1A0E0B6E5E0E0C6E6E0E0D6E0D2E0D
:1007E600FED70C2EFCD70B2EFAD700009CD0155046
:1007F6000008D8B097D016C020F0300E165C18E36B
:100806002050390815E327C000F028C001F00A0E71
:10081600046E000E056EE5DC300E205C026E036A87
:10082600000E035A02500024276E03500120286E42
:100836001550020A59E127C029F0010E236E010E58
:100846002A6E010E2B6E530E2C6E6BDD232A010EC3
:100856002A6E23C02BF0540E2C6E63DD232A010E64
:100866002A6E23C02BF0410E2C6E5BDD232A010E6F
:100876002A6E23C02BF0520E2C6E53DD232A010E56
:100886002A6E23C02BF0540E2C6E4BDD232A010E4C
:100896002A6E23C02BF0490E2C6E43DD232A010E4F
:1008A6002A6E23C02BF04E0E2C6E3BDD232A010E42
:1008B6002A6E23C02BF0470E2C6E33DD232A010E41
:1008C6002A6E23C02BF0200E2C6E2BDD1A0E0B6E1B
:1008D6005E0E0C6E6E0E0D6E0D2EFED70C2EFCD718
:1008E6000B2EFAD700001FD0FF0E15142A6E170E16
:1008F6002B6E000E2C6ECDDC226A080E225C12E2F4
:10090600010E2A6E090E22242B6E170EE96E000EBA
:10091600EA6E2250E926D8B0EA2AEECF2CF001DDA5
:10092600222AEBD7D5D6010E2F6E44EC00F0020E2C
:100936000B6E450E0C6EA90E0D6E0D2EFED70C2EEF
:10094600FCD70B2EFAD700000000010E236E010E15
:100956002A6E010E2B6E420E2C6EE3DC232A010E4C
:100966002A6E23C02BF0490E2C6EDBDC232A010EE7
:100976002A6E23C02BF04E0E2C6ED3DC232A232A9C
:10098600010E2A6E23C02BF0430E2C6ECADC232ADE
:10099600010E2A6E23C02BF04F0E2C6EC2DC232ACA
:1009A600010E2A6E23C02BF0550E2C6EBADC232ABC
:1009B600010E2A6E23C02BF04E0E2C6EB2DC232ABB
:1009C600010E2A6E23C02BF0540E2C6EAADC232AAD
:1009D600010E2A6E23C02BF0450E2C6EA2DC232AB4
:1009E600010E2A6E23C02BF0520E2C6E9ADC21C00B
:1009F6002AF0170E2B6E000E2C6E4BDC226A080EA8
:100A0600225C12E2020E2A6E020E22242B6E170EB2
:100A1600E96E000EEA6E2250E926D8B0EA2AEECF39
:100A26002CF07FDC222AEBD70D0E0B6EAF0E0C6E70
:100A3600B60E0D6E0D2EFED70C2EFCD70B2EFAD74A
:100A460000002950215CD8B0B9D080EC00F000C07D
:100A560026F00050130AD8A483D0010E236E010E8F
:100A66002A6E010E2B6E420E2C6E5BDC232A010EC3
:100A76002A6E23C02BF0520E2C6E53DC232A010E55
:100A86002A6E23C02BF0450E2C6E4BDC232A010E5A
:100A96002A6E23C02BF0410E2C6E43DC232A010E56
:100AA6002A6E23C02BF04B0E2C6E3BDC232A010E44
:100AB6002A6E23C02BF0490E2C6E33DC232A010E3E
:100AC6002A6E23C02BF04E0E2C6E2BDC232A010E31
:100AD6002A6E23C02BF0470E2C6E23DC232A010E30
:100AE6002A6E23C02BF0200E2C6E1BDC232A010E4F
:100AF6002A6E23C02BF0200E2C6E13DC232A010E47
:100B06002A6E23C02BF0200E2C6E0BDC232A010E3E
:100B16002A6E23C02BF0200E2C6E03DC232A010E36
:100B26002A6E23C02BF0200E2C6E94EC01F0232AA3
:100B3600010E2A6E23C02BF0200E2C6E94EC01F0D1
:100B4600232A400E0B6E6A0E0C6E970E0D6E0D2E3E
:100B5600FED70C2EFCD70B2EFAD7000000002ED0A5
:100B6600212A21C02AF0170E2B6E000E2C6E4CEC9B
:100B760001F0226A080E225C13E2020E2A6E020EB1
:100B860022242B6E170EE96E000EEA6E2250E9261D
:100B9600D8B0EA2AEECF2CF094EC01F0222AEAD75C
:100BA6000D0E0B6EAF0E0C6EB60E0D6E0D2EFED725
:100BB6000C2EFCD70B2EFAD7000043D7010E2F6E52
:100BC60044EC00F0020E0B6E450E0C6EA90E0D6E77
:100BD6000D2EFED70C2EFCD70B2EFAD700000000E8
:060BE600E3EF01F0FFD770
:020000040030CA
:0D000100021F1EFF8381FF0FC00FE00F40A4
:00000001FF
