:0400000088EF01F094
:0C0008009EAA03D0152AAECF16F01100FE
:10001400CD90FF0ECF6ED80ECE6E9E90CD809EB04A
:0600240001D0FDD712001F
:0A002A008A8AF3DF8A9AF1DF1200E0
:10003400010E3114006E00B002D08C9801D08C886F
:1000440031C000F00032009E010E001600B002D054
:100054008C9A01D08C8A31C000F00032009E0032AC
:10006400009E010E001600B002D08C9C01D08C8C36
:1000740031C000F00032009E0032009E0032009E2B
:10008400010E001600B002D08C9E01D08C8E12009E
:100094002B6A80A805D0100E2B6E100E006E17D0A0
:1000A40080AA05D0140E2B6E140E006E10D080ACF6
:1000B40005D0180E2B6E180E006E09D080AE05D038
:1000C4001C0E2B6E1C0E006E02D02BC000F0120012
:0C00D400030E316EADDFA7DF9BDF1200D2
:1000E0002D6A2E6A2C502E5C02E12B502D5C0FE203
:1000F0002F6A306A000E305C02E1190E2F5C04E2B8
:1001000089DF2F4A302AF6D72D4A2E2AEBD7120044
:100110008A942BC031F03132319E3132319E3132EE
:10012000319E3132319E86DF80DF0F0E2B14316E0F
:0601300081DF7BDF1200FD
:10013600266A276A8980ABDF00C027F00050000AD4
:100146000AE0C80E2B6E000E2C6EC7DF27C026F005
:1001560027C000F03CD08990898299DF00C027F043
:100166000050000A0BE0C80E2B6E000E2C6EB5DF99
:100176002750010F006E00C026F029D0899289848D
:1001860086DF00C027F00050000A0BE0C80E2B6E79
:10019600000E2C6EA2DF2750020F006E00C026F064
:1001A60016D08994898673DF00C027F00050000AB4
:1001B6000BE0C80E2B6E000E2C6E8FDF2750030F40
:1001C600006E00C026F003D0899626C000F012000B
:1001D600948C948E0F0EAF6EAC6AAB8EAB889D8AF4
:0601E600F28EF28C120003
:1001EC000900F5CFE6FF0006FBE10106F9E112007C
:0401FC00D56A1200AE
:10020000296A2A6A070E296E000E2A6E800E2A18A5
:10021000006E800E005C02E1000E295C31E3295083
:100220000708006E2AC001F0000E01560050272476
:10023000036E01502820046E29C002F0010E006EEA
:10024000000E016E025005E0003600900136FF0FEF
:10025000FAD726500016000E01160050011003E0D8
:10026000310E056E02D0300E056E03C0E1FF04C0F2
:10027000E2FF05C0E6FF010E295E000E2A5AC6D72E
:10028000080E2724E16E000E2820E26EE66A1200B6
:100290002650010A06E12704006E0050800F296EE7
:1002A00008D02650020A05E12704006E0050C00F56
:1002B000296E29C02BF02CDF8A8428C031F031321E
:1002C000319E3132319E3132319E3132319EB2DE39
:0E02D000ACDE0F0E2814316EADDEA7DE12007C
:1002DE00140E2B6E000E2C6EFCDEF5DEF4DEF3DE5D
:1002EE00020E316EA0DE9ADE280E2B6E0ADF0F0E86
:1002FE002B6E07DF010E2B6E04DF060E2B6E01DF59
:02030E001200DB
:10031000156A166A206A216A010E226E236A246A0F
:10032000256A0F0EC16E9394939A9598959A959C11
:10033000959E92909292929492969288928A928CA2
:10034000928E95905BDF47DFCADF0A0E2B6E000EA0
:100350002C6EC6DE216A226A166A246A256A156A2C
:10036000010E226E010E266E010E276E530E286EB0
:100370008FDF222A010E266E22C027F0450E286E3E
:1003800087DF222A010E266E22C027F0540E286E27
:100390007FDF222A010E266E22C027F03A0E286E39
:1003A00077DF222A222A010E226E0A0E2B6E000E01
:1003B0002C6E96DE2550120AD8B4F8D0010E266EA7
:1003C000060E276E23C028F063DF232AB4DE00C0A8
:1003D00025F00050100A02E1243624902550110A1D
:1003E00003E12436249024802550120A44E1010EB2
:1003F000266E22C027F0530E286E4ADF222A010EF5
:10040000266E22C027F0540E286E42DF222A010EEB
:10041000266E22C027F0410E286E3ADF222A010EF6
:10042000266E22C027F0520E286E32DF222A010EDD
:10043000266E22C027F0540E286E2ADF222A010ED3
:10044000266E22C027F0490E286E22DF222A010ED6
:10045000266E22C027F04E0E286E1ADF222A010EC9
:10046000266E22C027F0470E286E12DFD00E2B6EAC
:10047000070E2C6E35DE2550130AD8A479D0010E54
:10048000226E010E266E010E276E420E286E00DFD0
:10049000222A010E266E22C027F0520E286EF8DEA8
:1004A000222A010E266E22C027F0450E286EF0DEAD
:1004B000222A010E266E22C027F0410E286EE8DEA9
:1004C000222A010E266E22C027F04B0E286EE0DE97
:1004D000222A010E266E22C027F0490E286ED8DE91
:1004E000222A010E266E22C027F04E0E286ED0DE84
:1004F000222A010E266E22C027F0470E286EC8DE83
:10050000222A010E266E22C027F0200E286EC0DEA1
:10051000222A010E266E22C027F0200E286EB8DE99
:10052000222A010E266E22C027F0200E286EB0DE91
:10053000222A010E266E22C027F0200E286EA8DE89
:10054000222A010E266E22C027F0200E286EA0DE81
:10055000222A010E266E22C027F0200E286E98DE79
:10056000222AD00E2B6E070E2C6EBADD246A1ED006
:1005700024C026F0170E276E000E286E41DE216A79
:10058000080E215C12E2020E266E2150010F276E2A
:10059000170EE96E000EEA6E2150E926D8B0EA2A5D
:1005A000EECF28F075DE212AEBD704D724C020F047
:1005B000010E2B6EADDD640E2B6E000E2C6E90DDE9
:1005C000010E226E010E266E010E276E530E286E4E
:1005D0005FDE222A010E266E22C027F0450E286E0D
:1005E00057DE222A010E266E22C027F0430E286E07
:1005F0004FDE222A010E266E22C027F04F0E286EF3
:1006000047DE222A010E266E22C027F04E0E286EEB
:100610003FDE222A010E266E22C027F0440E286EED
:1006200037DE222A010E266E22C027F03A0E286EEF
:100630002FDE020E266E0A0E276E23C028F028DE5B
:10064000232A79DD00C025F00050130AD8A47AD0FF
:10065000FF0E166E010E226E010E266E010E276E23
:10066000420E286E15DE222A010E266E22C027F0C9
:10067000520E286E0DDE222A010E266E22C027F0B1
:10068000450E286E05DE222A010E266E22C027F0B6
:10069000410E286EFDDD222A010E266E22C027F0B3
:1006A0004B0E286EF5DD222A010E266E22C027F0A1
:1006B000490E286EEDDD222A010E266E22C027F09B
:1006C0004E0E286EE5DD222A010E266E22C027F08E
:1006D000470E286EDDDD222A010E266E22C027F08D
:1006E000200E286ED5DD222A010E266E22C027F0AC
:1006F000200E286ECDDD222A010E266E22C027F0A4
:10070000200E286EC5DD222A010E266E22C027F09B
:10071000200E286EBDDD222A010E266E22C027F093
:10072000200E286EB5DD222A010E266E22C027F08B
:10073000200E286EADDD222AD00E2B6E070E2C6EF9
:10074000CFDC71D0155000086DE2FF0E1614266E36
:10075000170E276E000E286E53DD216A080E215CED
:1007600012E2020E266E2150010F276E170EE96E5F
:10077000000EEA6E2150E926D8B0EA2AEECF28F022
:1007800087DD212AEBD7010E226E010E266E010EA7
:10079000276E530E286E7CDD222A010E266E22C0A3
:1007A00027F0540E286E74DD222A010E266E22C018
:1007B00027F0410E286E6CDD222A010E266E22C023
:1007C00027F0520E286E64DD222A010E266E22C00A
:1007D00027F0540E286E5CDD222A010E266E22C000
:1007E00027F0490E286E54DD222A010E266E22C003
:1007F00027F04E0E286E4CDD222A010E266E22C0F6
:1008000027F0470E286E44DD222A010E266E22C0F4
:1008100027F0200E286E3CDDD00E2B6E070E2C6EBE
:100820005FDC01D006D7010E2B6E72DC640E2B6EDE
:10083000000E2C6E55DC010E226E010E266E010E8E
:10084000276E420E286E24DD222A010E266E22C05B
:1008500027F0490E286E1CDD222A010E266E22C0CA
:1008600027F04E0E286E14DD222A222A010E266E53
:1008700022C027F0430E286E0BDD222A010E266EC1
:1008800022C027F04F0E286E03DD222A010E266EAD
:1008900022C027F0550E286EFBDC222A010E266EA0
:1008A00022C027F04E0E286EF3DC222A010E266E9F
:1008B00022C027F0540E286EEBDC222A010E266E91
:1008C00022C027F0450E286EE3DC222A010E266E98
:1008D00022C027F0520E286EDBDC20C026F0170E57
:1008E000276E000E286E8CDC216A080E215C12E255
:1008F000020E266E020E2124276E170EE96E000EE0
:10090000EA6E2150E926D8B0EA2AEECF28F0C0DC02
:10091000212AEBD7E80E2B6E030E2C6E70EC00F044
:100920001650201820E1010E226E020E266E010ED6
:10093000276E580E286EACDC222A020E266E22C0CC
:1009400027F03D0E286EA4DC222A020E266E22C05D
:1009500027F0590E286E9CDC222AE80E2B6E030E1F
:100960002C6E70EC00F02050165C20E2010E226E1E
:10097000020E266E010E276E580E286E89DC222A82
:10098000020E266E22C027F03C0E286E81DC222A41
:10099000020E266E22C027F0590E286E79DC222A1C
:1009A000E80E2B6E030E2C6E70EC00F01650205CDF
:1009B000D8B0AAD09BEC00F000C025F00050130A7C
:1009C000D8A47BD0010E226E010E266E010E276E7A
:1009D000420E286E5DDC222A010E266E22C027F010
:1009E000520E286E55DC222A010E266E22C027F0F8
:1009F000450E286E4DDC222A010E266E22C027F0FD
:100A0000410E286E45DC222A010E266E22C027F0F8
:100A10004B0E286E3DDC222A010E266E22C027F0E6
:100A2000490E286E35DC222A010E266E22C027F0E0
:100A30004E0E286E2DDC222A010E266E22C027F0D3
:100A4000470E286E25DC222A010E266E22C027F0D2
:100A5000200E286E1DDC222A010E266E22C027F0F1
:100A6000200E286E15DC222A010E266E22C027F0E9
:100A7000200E286E0DDC222A010E266E22C027F0E1
:100A8000200E286E05DC222A010E266E22C027F0D9
:100A9000200E286E48EC01F0222A010E266E22C09C
:100AA00027F0200E286E48EC01F0222A880E2B6ECB
:100AB000130E2C6E70EC00F027D0202A20C026F0F8
:100AC000170E276E000E286E00EC01F0216A080E4A
:100AD000215C13E2020E266E020E2124276E170EF1
:100AE000E96E000EEA6E2150E926D8B0EA2AEECF70
:100AF00028F048EC01F0212AEAD7E80E2B6E030E0D
:100B00002C6E70EC00F052D7010E2B6E88EC00F0CA
:100B1000640E2B6E000E2C6E70EC00F0010E226E37
:100B2000010E266E010E276E520E286E48EC01F063
:100B3000222A010E266E22C027F0450E286E48ECB0
:100B400001F0222A010E266E22C027F0530E286ED5
:100B500048EC01F0222A010E266E22C027F0540E26
:100B6000286E48EC01F0222A010E266E22C027F0E2
:100B7000410E286E48EC01F0222A010E266E22C09A
:100B800027F0520E286E48EC01F0222A010E266E44
:100B900022C027F0540E286E48EC01F0222A010EE4
:100BA000266E22C027F0490E286E48EC01F0222A5A
:100BB000010E266E22C027F04E0E286E48EC01F082
:100BC000222A010E266E22C027F0470E286E48EC1E
:100BD00001F0222A010E2B6E88EC00F0E80E2B6E3D
:0E0BE000030E2C6E70EC00F0AAEF01F0FFD7B0
:020000040030CA
:0D000100021F1EFF8381FF0FC00FE00F40A4
:00000001FF
