:1000000078EF01F00000000000EF00F000000000B9
:0A0010000000000000000000F3D71C
:10001C008A8A000000008A9A210E0D6E0D2EFED7E2
:02002C001200C0
:10002E00010E2A14006E00B002D08C9801D08C887C
:10003E002AC000F00032009E010E001600B002D061
:10004E008C9A01D08C8A2AC000F00032009E0032B9
:10005E00009E010E001600B002D08C9C01D08C8C3C
:10006E002AC000F00032009E0032009E0032009E38
:10007E00010E001600B002D08C9E01D08C8E1200A4
:10008E008A9429C02AF02A322A9E2A322A9E2A329D
:10009E002A9E2A322A9EC4DFBADF0F0E29142A6E38
:0600AE00BFDFB5DF120008
:1000B400296A80A805D0100E296E100E006E17D084
:1000C40080AA05D0110E296E110E006E10D080ACDE
:1000D40005D0120E296E120E006E09D080AE05D026
:1000E400130E296E130E006E02D029C000F0120008
:1000F400030E2A6E9ADF90DF210E0D6E0D2EFED7B1
:020104001200E7
:10010600410E0C6EEE0E0D6E0D2EFED70C2EFCD78C
:100116000000EDDFECDFEBDF020E2A6E85DF7BDF12
:10012600280E296EB1DF0C0E296EAEDF010E296E88
:0A013600ABDF060E296EA8DF1200F1
:10014000276A286A070E276E000E286E800E281870
:10015000006E800E005C02E1000E275C31E3275048
:100160000708006E28C001F0000E0156005025243B
:10017000036E01502620046E27C002F0010E006EAF
:10018000000E016E025005E0003600900136FF0FB0
:10019000FAD724500016000E01160050011003E09B
:1001A000310E056E02D0300E056E03C0E1FF04C0B3
:1001B000E2FF05C0E6FF010E275E000E285AC6D7F3
:1001C000080E2524E16E000E2620E26EE66A12007B
:1001D000246A256A89806EDF00C025F00050000A7D
:1001E00011E0FF0E2516410E0C6EEE0E0D6E0D2E5B
:1001F000FED70C2EFCD700002550100F006E00C05B
:1002000024F04ED08990898255DF00C025F000503F
:10021000000A11E0FF0E2516410E0C6EEE0E0D6E5B
:100220000D2EFED70C2EFCD700002550140F006EAB
:1002300000C024F035D0899289843CDF00C025F0CD
:100240000050000A11E0FF0E2516410E0C6EEE0E56
:100250000D6E0D2EFED70C2EFCD700002550180F6A
:10026000006E00C024F01CD08994898623DF00C072
:1002700025F00050000A11E0FF0E2516410E0C6E0D
:10028000EE0E0D6E0D2EFED70C2EFCD70000255065
:100290001C0F006E00C024F003D0899624C000F02B
:0202A00012004A
:1002A2002450010A06E12504006E0050800F276EDB
:1002B20008D02450020A05E12504006E0050C00F48
:1002C200276E27C029F0E2DE8A8426C02AF02A326D
:1002D2002A9E2A322A9E2A322A9E2A322A9EA6DE64
:0E02E2009CDE0F0E26142A6EA1DE97DE12009F
:1002F0001E6A1F6A010E206E216A226A236A0F0E8F
:10030000C16E9394939A9598959A959C959E929088
:100310009292929492969288928A928C928EF3DE26
:10032000210E0C6E760E0D6E0D2EFED70C2EFCD708
:100330000000010E246E20C025F0530E266EB1DFA2
:10034000202A010E246E20C025F0450E266EA9DF5E
:10035000202A010E246E20C025F0540E266EA1DF47
:10036000202A010E246E20C025F03A0E266E99DF59
:10037000202A202A010E206E2350120AD8B4AFD0B2
:10038000010E246E060E256E21C026F08ADF212A7A
:100390001FDF00C023F00050100A10E1030E0B6EA7
:1003A0008A0E0C6E550E0D6E0D2EFED70C2EFCD740
:1003B0000B2EFAD700000000223622902350110A9B
:1003C00011E1030E0B6E8A0E0C6E550E0D6E0D2E86
:1003D000FED70C2EFCD70B2EFAD7000000002236D9
:1003E000229022802350120A5CE1030E0B6E8A0ECB
:1003F0000C6E550E0D6E0D2EFED70C2EFCD70B2E4F
:10040000FAD70000000022C01EF0010E246E20C0AA
:1004100025F0530E266E45DF202A010E246E20C0E3
:1004200025F0540E266E3DDF202A010E246E20C0DA
:1004300025F0410E266E35DF202A010E246E20C0E5
:1004400025F0520E266E2DDF202A010E246E20C0CC
:1004500025F0540E266E25DF202A010E246E20C0C2
:1004600025F0490E266E1DDF202A010E246E20C0C5
:1004700025F04E0E266E15DF202A010E246E20C0B8
:1004800025F0470E266E0DDF1A0E0B6E5E0E0C6EFB
:100490006E0E0D6E0D2EFED70C2EFCD70B2EFAD73E
:1004A000000022C024F0150E256E000E266E48DED8
:1004B0001F6A080E1F5C12E2020E246E1F50010F0D
:1004C000256E150EE96E000EEA6E1F50E926D8B0B3
:1004D000EA2AEECF26F0E5DE1F2AEBD74DD722C061
:1004E0001EF0010E296ED3DD020E0B6E450E0C6E52
:1004F000A90E0D6E0D2EFED70C2EFCD70B2EFAD7A3
:1005000000000000010E206E010E246E010E256E0B
:10051000420E266EC6DE202A010E246E20C025F073
:10052000490E266EBEDE202A010E246E20C025F064
:100530004E0E266EB6DE202A202A010E246E20C022
:1005400025F0430E266EADDE202A010E246E20C05B
:1005500025F04F0E266EA5DE202A010E246E20C047
:1005600025F0550E266E9DDE202A010E246E20C039
:1005700025F04E0E266E95DE202A010E246E20C038
:1005800025F0540E266E8DDE202A010E246E20C02A
:1005900025F0450E266E85DE202A010E246E20C031
:1005A00025F0520E266E7DDE0D0E0B6EAF0E0C6E1C
:1005B000B60E0D6E0D2EFED70C2EFCD70B2EFAD7D5
:1005C00000001E2A1E50FF08D8A01E6A1EC024F07C
:1005D000150E256E000E266EB3DD1F6A080E1F5C19
:1005E00012E2020E246E020E1F24256E150EE96E15
:1005F000000EEA6E1F50E926D8B0EA2AEECF26F0A8
:0A06000050DE1F2AEBD7D0D7FFD73A
:020000040030CA
:0D000100021F1EFF8381FF0FC00FE00F40A4
:00000001FF
