:0400000088EF01F094
:0C0008009EAA03D0152AAECF16F01100FE
:10001400CD90FF0ECF6E9C0ECE6E9E90CD809EB086
:0600240001D0FDD712001F
:0A002A008A8AF3DF8A9AF1DF1200E0
:10003400010E3114006E00B002D08C9801D08C886F
:1000440031C000F00032009E010E001600B002D054
:100054008C9A01D08C8A31C000F00032009E0032AC
:10006400009E010E001600B002D08C9C01D08C8C36
:1000740031C000F00032009E0032009E0032009E2B
:10008400010E001600B002D08C9E01D08C8E12009E
:100094002B6A80A805D0100E2B6E100E006E17D0A0
:1000A40080AA05D0140E2B6E140E006E10D080ACF6
:1000B40005D0180E2B6E180E006E09D080AE05D038
:1000C4001C0E2B6E1C0E006E02D02BC000F0120012
:0C00D400030E316EADDFA7DF9BDF1200D2
:1000E0002D6A2E6A2C502E5C02E12B502D5C0FE203
:1000F0002F6A306A000E305C02E1190E2F5C04E2B8
:1001000089DF2F4A302AF6D72D4A2E2AEBD7120044
:100110008A942BC031F03132319E3132319E3132EE
:10012000319E3132319E86DF80DF0F0E2B14316E0F
:0601300081DF7BDF1200FD
:10013600266A276A8980ABDF00C027F00050000AD4
:100146000AE0C80E2B6E000E2C6EC7DF27C026F005
:1001560027C000F03CD08990898299DF00C027F043
:100166000050000A0BE0C80E2B6E000E2C6EB5DF99
:100176002750010F006E00C026F029D0899289848D
:1001860086DF00C027F00050000A0BE0C80E2B6E79
:10019600000E2C6EA2DF2750020F006E00C026F064
:1001A60016D08994898673DF00C027F00050000AB4
:1001B6000BE0C80E2B6E000E2C6E8FDF2750030F40
:1001C600006E00C026F003D0899626C000F012000B
:1001D600948C948E0F0EAF6EAC6AAB8EAB889D8AF4
:0601E600F28EF28C120003
:1001EC000900F5CFE6FF0006FBE10106F9E112007C
:0401FC00D56A1200AE
:10020000296A2A6A070E296E000E2A6E800E2A18A5
:10021000006E800E005C02E1000E295C31E3295083
:100220000708006E2AC001F0000E01560050272476
:10023000036E01502820046E29C002F0010E006EEA
:10024000000E016E025005E0003600900136FF0FEF
:10025000FAD726500016000E01160050011003E0D8
:10026000310E056E02D0300E056E03C0E1FF04C0F2
:10027000E2FF05C0E6FF010E295E000E2A5AC6D72E
:10028000080E2724E16E000E2820E26EE66A1200B6
:100290002650010A06E12704006E0050800F296EE7
:1002A00008D02650020A05E12704006E0050C00F56
:1002B000296E29C02BF02CDF8A8428C031F031321E
:1002C000319E3132319E3132319E3132319EB2DE39
:0E02D000ACDE0F0E2814316EADDEA7DE12007C
:1002DE00140E2B6E000E2C6EFCDEF5DEF4DEF3DE5D
:1002EE00020E316EA0DE9ADE280E2B6E0ADF0F0E86
:1002FE002B6E07DF010E2B6E04DF060E2B6E01DF59
:02030E001200DB
:10031000156A166A206A216A226A010E236E246A0F
:10032000256A0F0EC16E9394939A9598959A959C11
:10033000959E92909292929492969288928A928CA2
:10034000928E95905BDF47DFCADF0A0E2B6E000EA0
:100350002C6EC6DEE80E2B6E030E2C6EC1DE226AFA
:10036000236A216A166A246A256A156A010E236EB9
:10037000010E266E010E276E530E286E89DF232A8A
:10038000010E266E23C027F0450E286E81DF232A3A
:10039000010E266E23C027F0540E286E79DF232A23
:1003A000010E266E23C027F03A0E286E71DF232A35
:1003B000232A010E236E0A0E2B6E000E2C6E90DE89
:1003C0002550120AD8B4F0D0B6DE00C025F0005097
:1003D000100A02E1243624902550110A03E1243644
:1003E000249024802550120A44E1010E266E23C079
:1003F00027F0530E286E4CDF232A010E266E23C0F1
:1004000027F0540E286E44DF232A010E266E23C0E7
:1004100027F0410E286E3CDF232A010E266E23C0F2
:1004200027F0520E286E34DF232A010E266E23C0D9
:1004300027F0540E286E2CDF232A010E266E23C0CF
:1004400027F0490E286E24DF232A010E266E23C0D2
:1004500027F04E0E286E1CDF232A010E266E23C0C5
:1004600027F0470E286E14DFD00E2B6E070E2C6E71
:1004700037DE2550130AD8A479D0010E236E010E61
:10048000266E010E276E420E286E02DF232A010E11
:10049000266E23C027F0520E286EFADE232A010EA4
:1004A000266E23C027F0450E286EF2DE232A010EA9
:1004B000266E23C027F0410E286EEADE232A010EA5
:1004C000266E23C027F04B0E286EE2DE232A010E93
:1004D000266E23C027F0490E286EDADE232A010E8D
:1004E000266E23C027F04E0E286ED2DE232A010E80
:1004F000266E23C027F0470E286ECADE232A010E7F
:10050000266E23C027F0200E286EC2DE232A010E9D
:10051000266E23C027F0200E286EBADE232A010E95
:10052000266E23C027F0200E286EB2DE232A010E8D
:10053000266E23C027F0200E286EAADE232A010E85
:10054000266E23C027F0200E286EA2DE232A010E7D
:10055000266E23C027F0200E286E9ADE232AD00EA6
:100560002B6E070E2C6EBCDD246A1ED024C026F034
:10057000170E276E000E286E43DE226A080E225CDC
:1005800012E2020E266E2250010F276E170EE96E40
:10059000000EEA6E2250E926D8B0EA2AEECF28F003
:1005A00077DE222AEBD70CD724C020F0010E2B6E69
:1005B000AFDD640E2B6E000E2C6E92DD010E236EED
:1005C000010E266E010E276E530E286E61DE232A61
:1005D000010E266E23C027F0450E286E59DE232A11
:1005E000010E266E23C027F0430E286E51DE232A0B
:1005F000010E266E23C027F04F0E286E49DE232AF7
:10060000010E266E23C027F04E0E286E41DE232AEF
:10061000010E266E23C027F0440E286E39DE232AF1
:10062000010E266E23C027F03A0E286E31DE83DDE0
:1006300000C025F00050130AD8A497D0FF0E216EF9
:10064000010E236E010E266E010E276E420E286EDD
:100650001FDE232A010E266E23C027F0520E286EBD
:1006600017DE232A010E266E23C027F0450E286EC2
:100670000FDE232A010E266E23C027F0410E286EBE
:1006800007DE232A010E266E23C027F04B0E286EAC
:10069000FFDD232A010E266E23C027F0490E286EA7
:1006A000F7DD232A010E266E23C027F04E0E286E9A
:1006B000EFDD232A010E266E23C027F0470E286E99
:1006C000E7DD232A010E266E23C027F0200E286EB8
:1006D000DFDD232A010E266E23C027F0200E286EB0
:1006E000D7DD232A010E266E23C027F0200E286EA8
:1006F000CFDD232A010E266E23C027F0200E286EA0
:10070000C7DD232A010E266E23C027F0200E286E97
:10071000BFDD232A010E266E23C027F0200E286E8F
:10072000B7DD232A21C026F0170E276E000E286E93
:1007300067DD226A080E225C12E2020E266E22504B
:10074000010F276E170EE96E000EEA6E2250E926A1
:10075000D8B0EA2AEECF28F09BDD222AEBD7D00EC4
:100760002B6E070E2C6EBCDC72D0155000086EE2AA
:1007700016C021F016C026F0170E276E000E286E48
:100780003FDD226A080E225C12E2020E266E225023
:10079000010F276E170EE96E000EEA6E2250E92651
:1007A000D8B0EA2AEECF28F073DD222AEBD7010E6B
:1007B000236E010E266E010E276E530E286E68DD25
:1007C000232A010E266E23C027F0540E286E60DD0A
:1007D000232A010E266E23C027F0410E286E58DD15
:1007E000232A010E266E23C027F0520E286E50DDFC
:1007F000232A010E266E23C027F0540E286E48DDF2
:10080000232A010E266E23C027F0490E286E40DDF4
:10081000232A010E266E23C027F04E0E286E38DDE7
:10082000232A010E266E23C027F0470E286E30DDE6
:10083000232A010E266E23C027F0200E286E28DD05
:10084000D00E2B6E070E2C6E4BDC01D0F0D6010EB5
:100850002B6E5EDC640E2B6E000E2C6E41DC215084
:10086000201820E1010E236E020E266E010E276E67
:10087000580E286E0DDD232A020E266E23C027F0A7
:100880003D0E286E05DD232A020E266E23C027F0BA
:10089000590E286EFDDC232A880E2B6E130E2C6E4B
:1008A0001FDC53D12050215C21E2010E236E020E89
:1008B000266E010E276E580E286EEADC232A020EE1
:1008C000266E23C027F03C0E286EE2DC232A020E9F
:1008D000266E23C027F0590E286EDADC232A880EF4
:1008E0002B6E130E2C6E70EC00F02FD1010E236EC8
:1008F000010E266E010E276E420E286EC9DC232AD9
:10090000010E266E23C027F0490E286EC1DC232A73
:10091000010E266E23C027F04E0E286EB9DC232A66
:10092000232A010E266E23C027F0430E286EB0DC6A
:10093000232A010E266E23C027F04F0E286EA8DC56
:10094000232A010E266E23C027F0550E286EA0DC48
:10095000232A010E266E23C027F04E0E286E98DC47
:10096000232A010E266E23C027F0540E286E90DC39
:10097000232A010E266E23C027F0450E286E88DC40
:10098000232A010E266E23C027F0520E286E80DC2B
:1009900020C026F0170E276E000E286E31DC226A6A
:1009A000080E225C12E2020E266E020E2224276E30
:1009B000170EE96E000EEA6E2250E926D8B0EA2A38
:1009C000EECF28F065DC222AEBD7E80E2B6E030E63
:1009D0002C6E70EC00F02150205CD8B0ACD09BECB9
:1009E00000F000C025F00050130AD8A47DD0010EFD
:1009F000236E010E266E010E276E420E286E48DC15
:100A0000232A010E266E23C027F0520E286E40DCEA
:100A1000232A010E266E23C027F0450E286E38DCEF
:100A2000232A010E266E23C027F0410E286E30DCEB
:100A3000232A010E266E23C027F04B0E286E28DCD9
:100A4000232A010E266E23C027F0490E286E20DCD3
:100A5000232A010E266E23C027F04E0E286E18DCC6
:100A6000232A010E266E23C027F0470E286E10DCC5
:100A7000232A010E266E23C027F0200E286E08DCE4
:100A8000232A010E266E23C027F0200E286E00DCDC
:100A9000232A010E266E23C027F0200E286E48EC74
:100AA00001F0232A010E266E23C027F0200E286EA7
:100AB00048EC01F0232A010E266E23C027F0200EF9
:100AC000286E48EC01F0232A010E266E23C027F081
:100AD000200E286E48EC01F0232A880E2B6E130E90
:100AE0002C6E70EC00F027D0202A20C026F0170EC4
:100AF000276E000E286E00EC01F0226A080E225CC0
:100B000013E2020E266E020E2224276E170EE96EE5
:100B1000000EEA6E2250E926D8B0EA2AEECF28F07D
:100B200048EC01F0222AEAD7E80E2B6E030E2C6E59
:100B300070EC00F050D7010E2B6E88EC00F0640EC4
:100B40002B6E000E2C6E70EC00F0010E2B6E88ECFC
:100B500000F0640E2B6E000E2C6E70EC00F0010E97
:100B6000236E010E266E010E276E520E286E48EC83
:100B700001F0232A010E266E23C027F0450E286EB1
:100B800048EC01F0232A010E266E23C027F0530EF5
:100B9000286E48EC01F0232A010E266E23C027F0B0
:100BA000540E286E48EC01F0232A010E266E23C055
:100BB00027F0410E286E48EC01F0232A010E266E24
:100BC00023C027F0520E286E48EC01F0232A010EB4
:100BD000266E23C027F0540E286E48EC01F0232A1D
:100BE000010E266E23C027F0490E286E48EC01F056
:100BF000232A010E266E23C027F04E0E286E48ECE5
:100C000001F0232A010E266E23C027F0470E286E1E
:100C100048EC01F0232AD00E2B6E070E2C6E70ECE0
:100C200000F0010E2B6E88EC00F0AAEF01F0FFD768
:020000040030CA
:0D000100021F1EFF8381FF0FC00FE00F40A4
:00000001FF
