:1000000083EF01F00000000000EF00F000000000AE
:0A0010000000000000000000F3D71C
:10001C008A8A000000008A9A210E0D6E0D2EFED7E2
:02002C001200C0
:10002E00010E2A14006E00B002D08C9801D08C887C
:10003E002AC000F00032009E010E001600B002D061
:10004E008C9A01D08C8A2AC000F00032009E0032B9
:10005E00009E010E001600B002D08C9C01D08C8C3C
:10006E002AC000F00032009E0032009E0032009E38
:10007E00010E001600B002D08C9E01D08C8E1200A4
:10008E008A9429C02AF02A322A9E2A322A9E2A329D
:10009E002A9E2A322A9EC4DFBADF0F0E29142A6E38
:0600AE00BFDFB5DF120008
:1000B400296A80A805D0100E296E100E006E17D084
:1000C40080AA05D0140E296E140E006E10D080ACD8
:1000D40005D0180E296E180E006E09D080AE05D01A
:1000E4001C0E296E1C0E006E02D029C000F01200F6
:1000F400030E2A6E9ADF90DF210E0D6E0D2EFED7B1
:020104001200E7
:10010600410E0C6EEE0E0D6E0D2EFED70C2EFCD78C
:100116000000EDDFECDFEBDF020E2A6E85DF7BDF12
:10012600280E296EB1DF0C0E296EAEDF010E296E88
:0A013600ABDF060E296EA8DF1200F1
:10014000276A286A070E276E000E286E800E281870
:10015000006E800E005C02E1000E275C31E3275048
:100160000708006E28C001F0000E0156005025243B
:10017000036E01502620046E27C002F0010E006EAF
:10018000000E016E025005E0003600900136FF0FB0
:10019000FAD724500016000E01160050011003E09B
:1001A000310E056E02D0300E056E03C0E1FF04C0B3
:1001B000E2FF05C0E6FF010E275E000E285AC6D7F3
:1001C000080E2524E16E000E2620E26EE66A12007B
:1001D000246A256A89806EDF00C025F00050000A7D
:1001E00013E0030E0B6E8A0E0C6E550E0D6E0D2E67
:1001F000FED70C2EFCD70B2EFAD70000000025C02E
:1002000024F025C000F057D08990898253DF00C0C8
:1002100025F00050000A14E0030E0B6E8A0E0C6EDF
:10022000550E0D6E0D2EFED70C2EFCD70B2EFAD7C9
:10023000000000002550010F006E00C024F03BD0EC
:100240008992898437DF00C025F00050000A14E04D
:10025000030E0B6E8A0E0C6E550E0D6E0D2EFED714
:100260000C2EFCD70B2EFAD7000000002550020FF1
:10027000006E00C024F01FD0899489861BDF00C067
:1002800025F00050000A14E0030E0B6E8A0E0C6E6F
:10029000550E0D6E0D2EFED70C2EFCD70B2EFAD759
:1002A000000000002550030F006E00C024F003D0B2
:0802B000899624C000F0120041
:1002B8002450010A06E12504006E0050800F276EC5
:1002C80008D02450020A05E12504006E0050C00F32
:1002D800276E27C029F0D7DE8A8426C02AF02A3262
:1002E8002A9E2A322A9E2A322A9E2A322A9E9BDE59
:0E02F80091DE0F0E26142A6E96DE8CDE1200AA
:100306001E6A1F6A010E206E216A226A236A0F0E78
:10031600C16E9394939A9598959A959C959E929072
:100326009292929492969288928A928C928EE8DE1B
:10033600210E0C6E760E0D6E0D2EFED70C2EFCD7F2
:100346000000010E246E20C025F0530E266EB1DF8C
:10035600202A010E246E20C025F0450E266EA9DF48
:10036600202A010E246E20C025F0540E266EA1DF31
:10037600202A010E246E20C025F03A0E266E99DF43
:10038600202A202A010E206E2350120AD8B485D0C6
:10039600010E246E060E256E21C026F08ADF212A64
:1003A60014DF00C023F00050100A02E1223622902A
:1003B6002350110A03E12236229022802350120A8A
:1003C6004EE122C01EF0010E246E20C025F0530E11
:1003D600266E6FDF202A010E246E20C025F0540EF3
:1003E600266E67DF202A010E246E20C025F0410EFE
:1003F600266E5FDF202A010E246E20C025F0520EE5
:10040600266E57DF202A010E246E20C025F0540EDA
:10041600266E4FDF202A010E246E20C025F0490EDD
:10042600266E47DF202A010E246E20C025F04E0ED0
:10043600266E3FDF202A010E246E20C025F0470ECF
:10044600266E37DF1A0E0B6E5E0E0C6E6E0E0D6E7E
:100456000D2EFED70C2EFCD70B2EFAD7000022C08D
:1004660024F0150E256E000E266E67DE1F6A080E36
:100476001F5C12E2020E246E1F50010F256E150E30
:10048600E96E000EEA6E1F50E926D8B0EA2AEECFD2
:1004960026F00FDF1F2AEBD777D722C01EF0010EFA
:1004A600296EF2DD020E0B6E450E0C6EA90E0D6E58
:1004B6000D2EFED70C2EFCD70B2EFAD7000000000F
:1004C600010E206E010E246E010E256E420E266E62
:1004D600F0DE202A010E246E20C025F0490E266E7D
:1004E600E8DE202A010E246E20C025F04E0E266E70
:1004F600E0DE202A202A010E246E20C025F0430EBD
:10050600266ED7DE202A010E246E20C025F04F0E5F
:10051600266ECFDE202A010E246E20C025F0550E51
:10052600266EC7DE202A010E246E20C025F04E0E50
:10053600266EBFDE202A010E246E20C025F0540E42
:10054600266EB7DE202A010E246E20C025F0450E49
:10055600266EAFDE202A010E246E20C025F0520E34
:10056600266EA7DE0D0E0B6EAF0E0C6EB60E0D6E62
:100576000D2EFED70C2EFCD70B2EFAD700001E2A06
:100586001E50FF08D8A01E6A1EC024F0150E256E48
:10059600000E266ED2DD1F6A080E1F5C12E2020EE6
:1005A600246E020E1F24256E150EE96E000EEA6EED
:1005B6001F50E926D8B0EA2AEECF26F07ADE1F2AA7
:0605C600EBD7D0D7FFD7F0
:020000040030CA
:0D000100021F1EFF8381FF0FC00FE00F40A4
:00000001FF
