:10000000A8EF01F00000000000EF00F00000000089
:0A0010000000000000000000F3D71C
:10001C00010E2D14006E00B002D08C9801D08C888B
:10002C002DC000F00032009E010E001600B002D070
:10003C008C9A01D08C8A2DC000F00032009E0032C8
:10004C00009E010E001600B002D08C9C01D08C8C4E
:10005C002DC000F00032009E0032009E0032009E47
:10006C00010E001600B002D08C9E01D08C8E1200B6
:10007C008A8A000000008A9A210E0D6E0D2EFED782
:02008C00120060
:10008E008A942CC02DF02D322D9E2D322D9E2D3288
:10009E002D9E2D322D9EBBDFEADF0F0E2C142D6E02
:0600AE00B6DFE5DF1200E1
:1000B40080A803D0100E006E10D080AA03D0140EB6
:1000C400006E0BD080AC03D0180E006E06D080AE4C
:0C00D40003D01C0E006E01D0006A120068
:1000E000030E2D6E9BDFCADF210E0D6E0D2EFED787
:0200F0001200FC
:0C00F2009EB801D0FDD727C0ADFF120062
:1000FE00276A8980D8DF00C027F00050000A11E07F
:10010E00030E0B6E8A0E0C6E550E0D6E0D2EFED757
:10011E000C2EFCD70B2EFAD70000000027C000F0E3
:10012E0050D089908982BFDF00C027F00050000AAE
:10013E0012E0030E0B6E8A0E0C6E550E0D6E0D2E0A
:10014E00FED70C2EFCD70B2EFAD70000000027503E
:10015E00010F006E36D089928984A5DF00C027F08A
:10016E000050000A12E0030E0B6E8A0E0C6E550E36
:10017E000D6E0D2EFED70C2EFCD70B2EFAD70000CF
:10018E0000002750020F006E1CD0899489868BDFE9
:10019E0000C027F00050000A12E0030E0B6E8A0E0C
:1001AE000C6E550E0D6E0D2EFED70C2EFCD70B2E93
:1001BE00FAD7000000002750030F006E02D0899678
:0401CE00006A1200B1
:1001D2002750010A06E12804006E0050800F2A6EA3
:1001E20008D02750020A05E12804006E0050C00F13
:1001F2002A6E2AC02CF04ADF8A8429C02DF02D32C3
:100202002D9E2D322D9E2D322D9E2D322D9E05DFBF
:0E02120034DF0F0E29142D6E00DF2FDF1200D7
:100220000B6A0A6A096A00500402F4CF09F0F3CF9E
:1002300008F001500502F4CF0BF0F3CF0AF00050A4
:100240000502F3500926F4500A22E86A0B220150F5
:100250000402F3500926F4500A22E86A0B2208C06F
:1002600000F009C001F00AC002F00BC003F0120058
:0C0270009EBA01D0FDD7AECF00F0120006
:0A027C00000E9EBA010E006E120083
:100286002A6A2B6A070E2A6E000E2B6E800E2B181A
:10029600006E800E005C02E1000E2A5C31E32A50FB
:1002A6000708006E2BC001F0000E015600502824EE
:1002B600036E01502920046E2AC002F0010E006E62
:1002C600000E016E025005E0003600900136FF0F69
:1002D600FAD727500016000E01160050011003E051
:1002E600310E056E02D0300E056E03C0E1FF04C06C
:1002F600E2FF05C0E6FF010E2A5E000E2B5AC6D7A6
:10030600080E2824E16E000E2920E26EE66A12002D
:10031600410E0C6EEE0E0D6E0D2EFED70C2EFCD77A
:100326000000DBDEDADED9DE020E2D6E74DEA3DE21
:10033600280E2C6EA9DE0C0E2C6EA6DE010E2C6E7F
:0A034600A3DE060E2C6EA0DE1200EE
:100350001F6A206A010E216E226A236A246A256AB6
:10036000266A0F0EC16E9394939A9598959A959CD0
:10037000959E92909292929492969288928A928C62
:10038000928E949C948E400EAF6E200EAC6E090E31
:10039000AB6EC1DF210E0C6E760E0D6E0D2EFED7EC
:1003A0000C2EFCD70000010E276E21C028F0530E42
:1003B000296E0FDF212A010E276E21C028F0450E7D
:1003C000296E07DF212A010E276E21C028F0540E66
:1003D000296EFFDE212A010E276E21C028F03A0E79
:1003E000296EF7DE212A212A010E216E2450120ADD
:1003F000D8B485D0010E276E060E286E22C029F0D3
:10040000E8DE222A7CDE00C024F00050100A02E15F
:10041000233623902450110A03E1233623902380AE
:100420002450120A4EE123C01FF0010E276E21C096
:1004300028F0530E296ECDDE212A010E276E21C031
:1004400028F0540E296EC5DE212A010E276E21C028
:1004500028F0410E296EBDDE212A010E276E21C033
:1004600028F0520E296EB5DE212A010E276E21C01A
:1004700028F0540E296EADDE212A010E276E21C010
:1004800028F0490E296EA5DE212A010E276E21C013
:1004900028F04E0E296E9DDE212A010E276E21C006
:1004A00028F0470E296E95DE1A0E0B6E5E0E0C6E4E
:1004B0006E0E0D6E0D2EFED70C2EFCD70B2EFAD71E
:1004C000000023C027F0150E286E000E296EDBDE1B
:1004D000206A080E205C12E2020E276E2050010FE7
:1004E000286E150EE96E000EEA6E2050E926D8B08F
:1004F000EA2AEECF29F06DDE202AEBD777D723C08A
:100500001FF0010E2C6EC3DD020E0B6E450E0C6E3D
:10051000A90E0D6E0D2EFED70C2EFCD70B2EFAD782
:1005200000000000010E216E010E276E010E286EE4
:10053000530E296E4EDE212A010E276E21C028F0AF
:10054000450E296E46DE212A010E276E21C028F0B5
:10055000430E296E3EDE212A010E276E21C028F0AF
:100560004F0E296E36DE212A010E276E21C028F09B
:100570004E0E296E2EDE212A010E276E21C028F094
:10058000440E296E26DE212A010E276E21C028F096
:100590003A0E296E1EDE256A266A70DE005225E0BC
:1005A00067DE00C01EF0300E005C1BE31E503908F1
:1005B00018E325C000F026C001F00A0E046E000EFC
:1005C000056E2EDE300E1E5C026E036A000E035AAC
:1005D00002500024256E03500120266E1EC027F015
:1005E00088DD1E500D0A01E11FD0FF0E2514276E75
:1005F000150E286E000E296E46DE206A080E205C5D
:1006000012E2020E276E2050010F286E150EE96EC1
:10061000000EEA6E2050E926D8B0EA2AEECF29F083
:10062000D8DD202AEBD7B9D7010E2C6E30DD020EB3
:100630000B6E450E0C6EA90E0D6E0D2EFED70C2EF8
:10064000FCD70B2EFAD700000000010E216E010E20
:10065000276E010E286E420E296EBBDD212A010E87
:10066000276E21C028F0490E296EB3DD212A010E24
:10067000276E21C028F04E0E296EABDD212A212ADB
:10068000010E276E21C028F0430E296EA2DD212A1B
:10069000010E276E21C028F04F0E296E9ADD212A07
:1006A000010E276E21C028F0550E296E92DD212AF9
:1006B000010E276E21C028F04E0E296E8ADD212AF8
:1006C000010E276E21C028F0540E296E82DD212AEA
:1006D000010E276E21C028F0450E296E7ADD212AF1
:1006E000010E276E21C028F0520E296E72DD0D0E0C
:1006F0000B6EAF0E0C6EB60E0D6E0D2EFED70C2EC1
:10070000FCD70B2EFAD700001F2A1F50FF08D8A0D5
:100710001F6A1FC027F0150E286E000E296EB3DD6C
:10072000206A080E205C12E2020E276E020E2024C0
:10073000286E150EE96E000EEA6E2050E926D8B03C
:10074000EA2AEECF29F045DD202AEBD7D0D7FFD714
:020000040030CA
:0D000100021F1EFF8381FF0FC00FE00F40A4
:00000001FF
